{
  "address": "0xed8E9E422D4681E177423BCe0Ebaf03BF413a83B",
  "abi": [
    {
      "inputs": [
        {
          "internalType": "contract IERC20",
          "name": "_asset",
          "type": "address"
        },
        {
          "internalType": "string",
          "name": "_name",
          "type": "string"
        },
        {
          "internalType": "string",
          "name": "_symbol",
          "type": "string"
        }
      ],
      "stateMutability": "nonpayable",
      "type": "constructor"
    },
    {
      "inputs": [
        {
          "internalType": "address",
          "name": "target",
          "type": "address"
        }
      ],
      "name": "AddressEmptyCode",
      "type": "error"
    },
    {
      "inputs": [
        {
          "internalType": "address",
          "name": "account",
          "type": "address"
        }
      ],
      "name": "AddressInsufficientBalance",
      "type": "error"
    },
    {
      "inputs": [
        {
          "internalType": "address",
          "name": "spender",
          "type": "address"
        },
        {
          "internalType": "uint256",
          "name": "allowance",
          "type": "uint256"
        },
        {
          "internalType": "uint256",
          "name": "needed",
          "type": "uint256"
        }
      ],
      "name": "ERC20InsufficientAllowance",
      "type": "error"
    },
    {
      "inputs": [
        {
          "internalType": "address",
          "name": "sender",
          "type": "address"
        },
        {
          "internalType": "uint256",
          "name": "balance",
          "type": "uint256"
        },
        {
          "internalType": "uint256",
          "name": "needed",
          "type": "uint256"
        }
      ],
      "name": "ERC20InsufficientBalance",
      "type": "error"
    },
    {
      "inputs": [
        {
          "internalType": "address",
          "name": "approver",
          "type": "address"
        }
      ],
      "name": "ERC20InvalidApprover",
      "type": "error"
    },
    {
      "inputs": [
        {
          "internalType": "address",
          "name": "receiver",
          "type": "address"
        }
      ],
      "name": "ERC20InvalidReceiver",
      "type": "error"
    },
    {
      "inputs": [
        {
          "internalType": "address",
          "name": "sender",
          "type": "address"
        }
      ],
      "name": "ERC20InvalidSender",
      "type": "error"
    },
    {
      "inputs": [
        {
          "internalType": "address",
          "name": "spender",
          "type": "address"
        }
      ],
      "name": "ERC20InvalidSpender",
      "type": "error"
    },
    {
      "inputs": [
        {
          "internalType": "address",
          "name": "receiver",
          "type": "address"
        },
        {
          "internalType": "uint256",
          "name": "assets",
          "type": "uint256"
        },
        {
          "internalType": "uint256",
          "name": "max",
          "type": "uint256"
        }
      ],
      "name": "ERC4626ExceededMaxDeposit",
      "type": "error"
    },
    {
      "inputs": [
        {
          "internalType": "address",
          "name": "receiver",
          "type": "address"
        },
        {
          "internalType": "uint256",
          "name": "shares",
          "type": "uint256"
        },
        {
          "internalType": "uint256",
          "name": "max",
          "type": "uint256"
        }
      ],
      "name": "ERC4626ExceededMaxMint",
      "type": "error"
    },
    {
      "inputs": [
        {
          "internalType": "address",
          "name": "owner",
          "type": "address"
        },
        {
          "internalType": "uint256",
          "name": "shares",
          "type": "uint256"
        },
        {
          "internalType": "uint256",
          "name": "max",
          "type": "uint256"
        }
      ],
      "name": "ERC4626ExceededMaxRedeem",
      "type": "error"
    },
    {
      "inputs": [
        {
          "internalType": "address",
          "name": "owner",
          "type": "address"
        },
        {
          "internalType": "uint256",
          "name": "assets",
          "type": "uint256"
        },
        {
          "internalType": "uint256",
          "name": "max",
          "type": "uint256"
        }
      ],
      "name": "ERC4626ExceededMaxWithdraw",
      "type": "error"
    },
    {
      "inputs": [],
      "name": "FailedInnerCall",
      "type": "error"
    },
    {
      "inputs": [],
      "name": "MathOverflowedMulDiv",
      "type": "error"
    },
    {
      "inputs": [
        {
          "internalType": "address",
          "name": "owner",
          "type": "address"
        }
      ],
      "name": "OwnableInvalidOwner",
      "type": "error"
    },
    {
      "inputs": [
        {
          "internalType": "address",
          "name": "account",
          "type": "address"
        }
      ],
      "name": "OwnableUnauthorizedAccount",
      "type": "error"
    },
    {
      "inputs": [
        {
          "internalType": "address",
          "name": "token",
          "type": "address"
        }
      ],
      "name": "SafeERC20FailedOperation",
      "type": "error"
    },
    {
      "anonymous": false,
      "inputs": [
        {
          "indexed": true,
          "internalType": "address",
          "name": "owner",
          "type": "address"
        },
        {
          "indexed": true,
          "internalType": "address",
          "name": "spender",
          "type": "address"
        },
        {
          "indexed": false,
          "internalType": "uint256",
          "name": "value",
          "type": "uint256"
        }
      ],
      "name": "Approval",
      "type": "event"
    },
    {
      "anonymous": false,
      "inputs": [
        {
          "indexed": true,
          "internalType": "address",
          "name": "botWallet",
          "type": "address"
        },
        {
          "indexed": false,
          "internalType": "uint256",
          "name": "timestamp",
          "type": "uint256"
        }
      ],
      "name": "BotAuthorized",
      "type": "event"
    },
    {
      "anonymous": false,
      "inputs": [
        {
          "indexed": true,
          "internalType": "address",
          "name": "botWallet",
          "type": "address"
        },
        {
          "indexed": false,
          "internalType": "uint256",
          "name": "timestamp",
          "type": "uint256"
        }
      ],
      "name": "BotDeauthorized",
      "type": "event"
    },
    {
      "anonymous": false,
      "inputs": [
        {
          "indexed": true,
          "internalType": "address",
          "name": "sender",
          "type": "address"
        },
        {
          "indexed": true,
          "internalType": "address",
          "name": "owner",
          "type": "address"
        },
        {
          "indexed": false,
          "internalType": "uint256",
          "name": "assets",
          "type": "uint256"
        },
        {
          "indexed": false,
          "internalType": "uint256",
          "name": "shares",
          "type": "uint256"
        }
      ],
      "name": "Deposit",
      "type": "event"
    },
    {
      "anonymous": false,
      "inputs": [
        {
          "indexed": true,
          "internalType": "address",
          "name": "dexRouter",
          "type": "address"
        },
        {
          "indexed": false,
          "internalType": "uint256",
          "name": "timestamp",
          "type": "uint256"
        }
      ],
      "name": "DexRouterRemoved",
      "type": "event"
    },
    {
      "anonymous": false,
      "inputs": [
        {
          "indexed": true,
          "internalType": "address",
          "name": "dexRouter",
          "type": "address"
        },
        {
          "indexed": false,
          "internalType": "uint256",
          "name": "timestamp",
          "type": "uint256"
        }
      ],
      "name": "DexRouterWhitelisted",
      "type": "event"
    },
    {
      "anonymous": false,
      "inputs": [
        {
          "indexed": true,
          "internalType": "address",
          "name": "owner",
          "type": "address"
        },
        {
          "indexed": true,
          "internalType": "address",
          "name": "token",
          "type": "address"
        },
        {
          "indexed": false,
          "internalType": "uint256",
          "name": "amount",
          "type": "uint256"
        },
        {
          "indexed": false,
          "internalType": "uint256",
          "name": "timestamp",
          "type": "uint256"
        }
      ],
      "name": "EmergencyWithdraw",
      "type": "event"
    },
    {
      "anonymous": false,
      "inputs": [
        {
          "indexed": true,
          "internalType": "address",
          "name": "bot",
          "type": "address"
        },
        {
          "indexed": true,
          "internalType": "address",
          "name": "recipient",
          "type": "address"
        },
        {
          "indexed": false,
          "internalType": "uint256",
          "name": "amount",
          "type": "uint256"
        },
        {
          "indexed": false,
          "internalType": "uint256",
          "name": "timestamp",
          "type": "uint256"
        }
      ],
      "name": "MicropaymentSent",
      "type": "event"
    },
    {
      "anonymous": false,
      "inputs": [
        {
          "indexed": true,
          "internalType": "address",
          "name": "previousOwner",
          "type": "address"
        },
        {
          "indexed": true,
          "internalType": "address",
          "name": "newOwner",
          "type": "address"
        }
      ],
      "name": "OwnershipTransferred",
      "type": "event"
    },
    {
      "anonymous": false,
      "inputs": [
        {
          "indexed": true,
          "internalType": "address",
          "name": "oracle",
          "type": "address"
        },
        {
          "indexed": false,
          "internalType": "uint256",
          "name": "timestamp",
          "type": "uint256"
        }
      ],
      "name": "PriceOracleSet",
      "type": "event"
    },
    {
      "anonymous": false,
      "inputs": [
        {
          "indexed": true,
          "internalType": "address",
          "name": "token",
          "type": "address"
        },
        {
          "indexed": false,
          "internalType": "uint256",
          "name": "timestamp",
          "type": "uint256"
        }
      ],
      "name": "TokenRemoved",
      "type": "event"
    },
    {
      "anonymous": false,
      "inputs": [
        {
          "indexed": true,
          "internalType": "address",
          "name": "token",
          "type": "address"
        },
        {
          "indexed": false,
          "internalType": "uint256",
          "name": "timestamp",
          "type": "uint256"
        }
      ],
      "name": "TokenWhitelisted",
      "type": "event"
    },
    {
      "anonymous": false,
      "inputs": [
        {
          "indexed": true,
          "internalType": "address",
          "name": "bot",
          "type": "address"
        },
        {
          "indexed": true,
          "internalType": "address",
          "name": "tokenIn",
          "type": "address"
        },
        {
          "indexed": true,
          "internalType": "address",
          "name": "tokenOut",
          "type": "address"
        },
        {
          "indexed": false,
          "internalType": "uint256",
          "name": "amountIn",
          "type": "uint256"
        },
        {
          "indexed": false,
          "internalType": "uint256",
          "name": "amountOut",
          "type": "uint256"
        },
        {
          "indexed": false,
          "internalType": "uint256",
          "name": "timestamp",
          "type": "uint256"
        }
      ],
      "name": "TradeExecuted",
      "type": "event"
    },
    {
      "anonymous": false,
      "inputs": [
        {
          "indexed": true,
          "internalType": "address",
          "name": "from",
          "type": "address"
        },
        {
          "indexed": true,
          "internalType": "address",
          "name": "to",
          "type": "address"
        },
        {
          "indexed": false,
          "internalType": "uint256",
          "name": "value",
          "type": "uint256"
        }
      ],
      "name": "Transfer",
      "type": "event"
    },
    {
      "anonymous": false,
      "inputs": [
        {
          "indexed": true,
          "internalType": "address",
          "name": "sender",
          "type": "address"
        },
        {
          "indexed": true,
          "internalType": "address",
          "name": "receiver",
          "type": "address"
        },
        {
          "indexed": true,
          "internalType": "address",
          "name": "owner",
          "type": "address"
        },
        {
          "indexed": false,
          "internalType": "uint256",
          "name": "assets",
          "type": "uint256"
        },
        {
          "indexed": false,
          "internalType": "uint256",
          "name": "shares",
          "type": "uint256"
        }
      ],
      "name": "Withdraw",
      "type": "event"
    },
    {
      "inputs": [],
      "name": "DAILY_MICROPAYMENT_LIMIT",
      "outputs": [
        {
          "internalType": "uint256",
          "name": "",
          "type": "uint256"
        }
      ],
      "stateMutability": "view",
      "type": "function"
    },
    {
      "inputs": [
        {
          "internalType": "address",
          "name": "owner",
          "type": "address"
        },
        {
          "internalType": "address",
          "name": "spender",
          "type": "address"
        }
      ],
      "name": "allowance",
      "outputs": [
        {
          "internalType": "uint256",
          "name": "",
          "type": "uint256"
        }
      ],
      "stateMutability": "view",
      "type": "function"
    },
    {
      "inputs": [
        {
          "internalType": "address",
          "name": "spender",
          "type": "address"
        },
        {
          "internalType": "uint256",
          "name": "value",
          "type": "uint256"
        }
      ],
      "name": "approve",
      "outputs": [
        {
          "internalType": "bool",
          "name": "",
          "type": "bool"
        }
      ],
      "stateMutability": "nonpayable",
      "type": "function"
    },
    {
      "inputs": [],
      "name": "asset",
      "outputs": [
        {
          "internalType": "address",
          "name": "",
          "type": "address"
        }
      ],
      "stateMutability": "view",
      "type": "function"
    },
    {
      "inputs": [
        {
          "internalType": "address",
          "name": "botWallet",
          "type": "address"
        }
      ],
      "name": "authorizeBotWallet",
      "outputs": [],
      "stateMutability": "nonpayable",
      "type": "function"
    },
    {
      "inputs": [
        {
          "internalType": "address",
          "name": "",
          "type": "address"
        }
      ],
      "name": "authorizedBots",
      "outputs": [
        {
          "internalType": "bool",
          "name": "",
          "type": "bool"
        }
      ],
      "stateMutability": "view",
      "type": "function"
    },
    {
      "inputs": [
        {
          "internalType": "address",
          "name": "account",
          "type": "address"
        }
      ],
      "name": "balanceOf",
      "outputs": [
        {
          "internalType": "uint256",
          "name": "",
          "type": "uint256"
        }
      ],
      "stateMutability": "view",
      "type": "function"
    },
    {
      "inputs": [
        {
          "internalType": "uint256",
          "name": "shares",
          "type": "uint256"
        }
      ],
      "name": "convertToAssets",
      "outputs": [
        {
          "internalType": "uint256",
          "name": "",
          "type": "uint256"
        }
      ],
      "stateMutability": "view",
      "type": "function"
    },
    {
      "inputs": [
        {
          "internalType": "uint256",
          "name": "assets",
          "type": "uint256"
        }
      ],
      "name": "convertToShares",
      "outputs": [
        {
          "internalType": "uint256",
          "name": "",
          "type": "uint256"
        }
      ],
      "stateMutability": "view",
      "type": "function"
    },
    {
      "inputs": [
        {
          "internalType": "address",
          "name": "",
          "type": "address"
        }
      ],
      "name": "dailyMicropaymentUsed",
      "outputs": [
        {
          "internalType": "uint256",
          "name": "",
          "type": "uint256"
        }
      ],
      "stateMutability": "view",
      "type": "function"
    },
    {
      "inputs": [
        {
          "internalType": "address",
          "name": "botWallet",
          "type": "address"
        }
      ],
      "name": "deauthorizeBotWallet",
      "outputs": [],
      "stateMutability": "nonpayable",
      "type": "function"
    },
    {
      "inputs": [],
      "name": "decimals",
      "outputs": [
        {
          "internalType": "uint8",
          "name": "",
          "type": "uint8"
        }
      ],
      "stateMutability": "view",
      "type": "function"
    },
    {
      "inputs": [
        {
          "internalType": "uint256",
          "name": "assets",
          "type": "uint256"
        },
        {
          "internalType": "address",
          "name": "receiver",
          "type": "address"
        }
      ],
      "name": "deposit",
      "outputs": [
        {
          "internalType": "uint256",
          "name": "",
          "type": "uint256"
        }
      ],
      "stateMutability": "nonpayable",
      "type": "function"
    },
    {
      "inputs": [
        {
          "internalType": "address",
          "name": "token",
          "type": "address"
        }
      ],
      "name": "emergencyWithdraw",
      "outputs": [],
      "stateMutability": "nonpayable",
      "type": "function"
    },
    {
      "inputs": [
        {
          "internalType": "address",
          "name": "tokenIn",
          "type": "address"
        },
        {
          "internalType": "address",
          "name": "tokenOut",
          "type": "address"
        },
        {
          "internalType": "uint256",
          "name": "amountIn",
          "type": "uint256"
        },
        {
          "internalType": "uint256",
          "name": "minAmountOut",
          "type": "uint256"
        },
        {
          "internalType": "address",
          "name": "dexRouter",
          "type": "address"
        },
        {
          "internalType": "bytes",
          "name": "swapCalldata",
          "type": "bytes"
        }
      ],
      "name": "executeTrade",
      "outputs": [
        {
          "internalType": "uint256",
          "name": "amountOut",
          "type": "uint256"
        }
      ],
      "stateMutability": "nonpayable",
      "type": "function"
    },
    {
      "inputs": [],
      "name": "getHeldTokens",
      "outputs": [
        {
          "internalType": "address[]",
          "name": "",
          "type": "address[]"
        }
      ],
      "stateMutability": "view",
      "type": "function"
    },
    {
      "inputs": [
        {
          "internalType": "address",
          "name": "bot",
          "type": "address"
        }
      ],
      "name": "getRemainingMicropaymentAllowance",
      "outputs": [
        {
          "internalType": "uint256",
          "name": "",
          "type": "uint256"
        }
      ],
      "stateMutability": "view",
      "type": "function"
    },
    {
      "inputs": [
        {
          "internalType": "address",
          "name": "token",
          "type": "address"
        }
      ],
      "name": "getTokenBalance",
      "outputs": [
        {
          "internalType": "uint256",
          "name": "",
          "type": "uint256"
        }
      ],
      "stateMutability": "view",
      "type": "function"
    },
    {
      "inputs": [
        {
          "internalType": "uint256",
          "name": "",
          "type": "uint256"
        }
      ],
      "name": "heldTokens",
      "outputs": [
        {
          "internalType": "address",
          "name": "",
          "type": "address"
        }
      ],
      "stateMutability": "view",
      "type": "function"
    },
    {
      "inputs": [
        {
          "internalType": "uint256",
          "name": "initialDeposit",
          "type": "uint256"
        }
      ],
      "name": "initializeVault",
      "outputs": [],
      "stateMutability": "nonpayable",
      "type": "function"
    },
    {
      "inputs": [
        {
          "internalType": "address",
          "name": "botWallet",
          "type": "address"
        }
      ],
      "name": "isBotAuthorized",
      "outputs": [
        {
          "internalType": "bool",
          "name": "",
          "type": "bool"
        }
      ],
      "stateMutability": "view",
      "type": "function"
    },
    {
      "inputs": [
        {
          "internalType": "address",
          "name": "dexRouter",
          "type": "address"
        }
      ],
      "name": "isDexRouterWhitelisted",
      "outputs": [
        {
          "internalType": "bool",
          "name": "",
          "type": "bool"
        }
      ],
      "stateMutability": "view",
      "type": "function"
    },
    {
      "inputs": [
        {
          "internalType": "address",
          "name": "token",
          "type": "address"
        }
      ],
      "name": "isTokenWhitelisted",
      "outputs": [
        {
          "internalType": "bool",
          "name": "",
          "type": "bool"
        }
      ],
      "stateMutability": "view",
      "type": "function"
    },
    {
      "inputs": [
        {
          "internalType": "address",
          "name": "",
          "type": "address"
        }
      ],
      "name": "lastMicropaymentReset",
      "outputs": [
        {
          "internalType": "uint256",
          "name": "",
          "type": "uint256"
        }
      ],
      "stateMutability": "view",
      "type": "function"
    },
    {
      "inputs": [
        {
          "internalType": "address",
          "name": "",
          "type": "address"
        }
      ],
      "name": "maxDeposit",
      "outputs": [
        {
          "internalType": "uint256",
          "name": "",
          "type": "uint256"
        }
      ],
      "stateMutability": "view",
      "type": "function"
    },
    {
      "inputs": [
        {
          "internalType": "address",
          "name": "",
          "type": "address"
        }
      ],
      "name": "maxMint",
      "outputs": [
        {
          "internalType": "uint256",
          "name": "",
          "type": "uint256"
        }
      ],
      "stateMutability": "view",
      "type": "function"
    },
    {
      "inputs": [
        {
          "internalType": "address",
          "name": "owner",
          "type": "address"
        }
      ],
      "name": "maxRedeem",
      "outputs": [
        {
          "internalType": "uint256",
          "name": "",
          "type": "uint256"
        }
      ],
      "stateMutability": "view",
      "type": "function"
    },
    {
      "inputs": [
        {
          "internalType": "address",
          "name": "owner",
          "type": "address"
        }
      ],
      "name": "maxWithdraw",
      "outputs": [
        {
          "internalType": "uint256",
          "name": "",
          "type": "uint256"
        }
      ],
      "stateMutability": "view",
      "type": "function"
    },
    {
      "inputs": [
        {
          "internalType": "uint256",
          "name": "shares",
          "type": "uint256"
        },
        {
          "internalType": "address",
          "name": "receiver",
          "type": "address"
        }
      ],
      "name": "mint",
      "outputs": [
        {
          "internalType": "uint256",
          "name": "",
          "type": "uint256"
        }
      ],
      "stateMutability": "nonpayable",
      "type": "function"
    },
    {
      "inputs": [],
      "name": "name",
      "outputs": [
        {
          "internalType": "string",
          "name": "",
          "type": "string"
        }
      ],
      "stateMutability": "view",
      "type": "function"
    },
    {
      "inputs": [],
      "name": "owner",
      "outputs": [
        {
          "internalType": "address",
          "name": "",
          "type": "address"
        }
      ],
      "stateMutability": "view",
      "type": "function"
    },
    {
      "inputs": [
        {
          "internalType": "uint256",
          "name": "assets",
          "type": "uint256"
        }
      ],
      "name": "previewDeposit",
      "outputs": [
        {
          "internalType": "uint256",
          "name": "",
          "type": "uint256"
        }
      ],
      "stateMutability": "view",
      "type": "function"
    },
    {
      "inputs": [
        {
          "internalType": "uint256",
          "name": "shares",
          "type": "uint256"
        }
      ],
      "name": "previewMint",
      "outputs": [
        {
          "internalType": "uint256",
          "name": "",
          "type": "uint256"
        }
      ],
      "stateMutability": "view",
      "type": "function"
    },
    {
      "inputs": [
        {
          "internalType": "uint256",
          "name": "shares",
          "type": "uint256"
        }
      ],
      "name": "previewRedeem",
      "outputs": [
        {
          "internalType": "uint256",
          "name": "",
          "type": "uint256"
        }
      ],
      "stateMutability": "view",
      "type": "function"
    },
    {
      "inputs": [
        {
          "internalType": "uint256",
          "name": "assets",
          "type": "uint256"
        }
      ],
      "name": "previewWithdraw",
      "outputs": [
        {
          "internalType": "uint256",
          "name": "",
          "type": "uint256"
        }
      ],
      "stateMutability": "view",
      "type": "function"
    },
    {
      "inputs": [],
      "name": "priceOracle",
      "outputs": [
        {
          "internalType": "address",
          "name": "",
          "type": "address"
        }
      ],
      "stateMutability": "view",
      "type": "function"
    },
    {
      "inputs": [
        {
          "internalType": "uint256",
          "name": "shares",
          "type": "uint256"
        },
        {
          "internalType": "address",
          "name": "receiver",
          "type": "address"
        },
        {
          "internalType": "address",
          "name": "owner",
          "type": "address"
        }
      ],
      "name": "redeem",
      "outputs": [
        {
          "internalType": "uint256",
          "name": "",
          "type": "uint256"
        }
      ],
      "stateMutability": "nonpayable",
      "type": "function"
    },
    {
      "inputs": [
        {
          "internalType": "address",
          "name": "dexRouter",
          "type": "address"
        }
      ],
      "name": "removeDexRouter",
      "outputs": [],
      "stateMutability": "nonpayable",
      "type": "function"
    },
    {
      "inputs": [
        {
          "internalType": "address",
          "name": "token",
          "type": "address"
        }
      ],
      "name": "removeToken",
      "outputs": [],
      "stateMutability": "nonpayable",
      "type": "function"
    },
    {
      "inputs": [],
      "name": "renounceOwnership",
      "outputs": [],
      "stateMutability": "nonpayable",
      "type": "function"
    },
    {
      "inputs": [
        {
          "internalType": "address",
          "name": "oracle",
          "type": "address"
        }
      ],
      "name": "setPriceOracle",
      "outputs": [],
      "stateMutability": "nonpayable",
      "type": "function"
    },
    {
      "inputs": [],
      "name": "symbol",
      "outputs": [
        {
          "internalType": "string",
          "name": "",
          "type": "string"
        }
      ],
      "stateMutability": "view",
      "type": "function"
    },
    {
      "inputs": [],
      "name": "totalAssets",
      "outputs": [
        {
          "internalType": "uint256",
          "name": "",
          "type": "uint256"
        }
      ],
      "stateMutability": "view",
      "type": "function"
    },
    {
      "inputs": [],
      "name": "totalSupply",
      "outputs": [
        {
          "internalType": "uint256",
          "name": "",
          "type": "uint256"
        }
      ],
      "stateMutability": "view",
      "type": "function"
    },
    {
      "inputs": [],
      "name": "totalTradesExecuted",
      "outputs": [
        {
          "internalType": "uint256",
          "name": "",
          "type": "uint256"
        }
      ],
      "stateMutability": "view",
      "type": "function"
    },
    {
      "inputs": [
        {
          "internalType": "address",
          "name": "to",
          "type": "address"
        },
        {
          "internalType": "uint256",
          "name": "value",
          "type": "uint256"
        }
      ],
      "name": "transfer",
      "outputs": [
        {
          "internalType": "bool",
          "name": "",
          "type": "bool"
        }
      ],
      "stateMutability": "nonpayable",
      "type": "function"
    },
    {
      "inputs": [
        {
          "internalType": "address",
          "name": "from",
          "type": "address"
        },
        {
          "internalType": "address",
          "name": "to",
          "type": "address"
        },
        {
          "internalType": "uint256",
          "name": "value",
          "type": "uint256"
        }
      ],
      "name": "transferFrom",
      "outputs": [
        {
          "internalType": "bool",
          "name": "",
          "type": "bool"
        }
      ],
      "stateMutability": "nonpayable",
      "type": "function"
    },
    {
      "inputs": [
        {
          "internalType": "address",
          "name": "newOwner",
          "type": "address"
        }
      ],
      "name": "transferOwnership",
      "outputs": [],
      "stateMutability": "nonpayable",
      "type": "function"
    },
    {
      "inputs": [
        {
          "internalType": "address",
          "name": "recipient",
          "type": "address"
        },
        {
          "internalType": "uint256",
          "name": "amount",
          "type": "uint256"
        }
      ],
      "name": "transferUSDC",
      "outputs": [],
      "stateMutability": "nonpayable",
      "type": "function"
    },
    {
      "inputs": [
        {
          "internalType": "address",
          "name": "dexRouter",
          "type": "address"
        }
      ],
      "name": "whitelistDexRouter",
      "outputs": [],
      "stateMutability": "nonpayable",
      "type": "function"
    },
    {
      "inputs": [
        {
          "internalType": "address",
          "name": "token",
          "type": "address"
        }
      ],
      "name": "whitelistToken",
      "outputs": [],
      "stateMutability": "nonpayable",
      "type": "function"
    },
    {
      "inputs": [
        {
          "internalType": "address",
          "name": "",
          "type": "address"
        }
      ],
      "name": "whitelistedDexRouters",
      "outputs": [
        {
          "internalType": "bool",
          "name": "",
          "type": "bool"
        }
      ],
      "stateMutability": "view",
      "type": "function"
    },
    {
      "inputs": [
        {
          "internalType": "address",
          "name": "",
          "type": "address"
        }
      ],
      "name": "whitelistedTokens",
      "outputs": [
        {
          "internalType": "bool",
          "name": "",
          "type": "bool"
        }
      ],
      "stateMutability": "view",
      "type": "function"
    },
    {
      "inputs": [
        {
          "internalType": "uint256",
          "name": "assets",
          "type": "uint256"
        },
        {
          "internalType": "address",
          "name": "receiver",
          "type": "address"
        },
        {
          "internalType": "address",
          "name": "owner",
          "type": "address"
        }
      ],
      "name": "withdraw",
      "outputs": [
        {
          "internalType": "uint256",
          "name": "",
          "type": "uint256"
        }
      ],
      "stateMutability": "nonpayable",
      "type": "function"
    },
    {
      "stateMutability": "payable",
      "type": "receive"
    }
  ],
  "transactionHash": "0xc3e0a938147135d0dcd1627b0a5dd02c63ab9b34b4f938efa102751109daf8fd",
  "args": [
    "0x833589fCD6eDb6E08f4c7C32D4f71b54bdA02913",
    "S4D5 Vault Shares",
    "S4D5-VAULT"
  ],
  "numDeployments": 1,
  "solcInputHash": "8bd99f3d1f4460ba607f91a92a9c8f04",
  "bytecode": "0x60c060405234801561001057600080fd5b506040516139ff3803806139ff83398101604081905261002f91610315565b33838383600361003f8382610426565b50600461004c8282610426565b5050506000806100618361012460201b60201c565b9150915081610071576012610073565b805b60ff1660a05250506001600160a01b0390811660805281166100af57604051631e4fbdf760e01b81526000600482015260240160405180910390fd5b6100b881610200565b5050506001600160a01b03166000818152600860205260408120805460ff191660019081179091556009805491820181559091527f6e1540171b6c0c960b71a7020d9f60077f6af931a8bbf590da0223dacf75c7af0180546001600160a01b0319169091179055610519565b60408051600481526024810182526020810180516001600160e01b031663313ce56760e01b17905290516000918291829182916001600160a01b0387169161016b916104e4565b600060405180830381855afa9150503d80600081146101a6576040519150601f19603f3d011682016040523d82523d6000602084013e6101ab565b606091505b50915091508180156101bf57506020815110155b156101f3576000818060200190518101906101da9190610500565b905060ff81116101f1576001969095509350505050565b505b5060009485945092505050565b600580546001600160a01b038381166001600160a01b0319831681179093556040519116919082907f8be0079c531659141344cd1fd0a4f28419497f9722a3daafe3b4186f6b6457e090600090a35050565b634e487b7160e01b600052604160045260246000fd5b60005b8381101561028357818101518382015260200161026b565b50506000910152565b600082601f83011261029d57600080fd5b81516001600160401b038111156102b6576102b6610252565b604051601f8201601f19908116603f011681016001600160401b03811182821017156102e4576102e4610252565b6040528181528382016020018510156102fc57600080fd5b61030d826020830160208701610268565b949350505050565b60008060006060848603121561032a57600080fd5b83516001600160a01b038116811461034157600080fd5b60208501519093506001600160401b0381111561035d57600080fd5b6103698682870161028c565b604086015190935090506001600160401b0381111561038757600080fd5b6103938682870161028c565b9150509250925092565b600181811c908216806103b157607f821691505b6020821081036103d157634e487b7160e01b600052602260045260246000fd5b50919050565b601f82111561042157806000526020600020601f840160051c810160208510156103fe5750805b601f840160051c820191505b8181101561041e576000815560010161040a565b50505b505050565b81516001600160401b0381111561043f5761043f610252565b6104538161044d845461039d565b846103d7565b6020601f821160018114610487576000831561046f5750848201515b600019600385901b1c1916600184901b17845561041e565b600084815260208120601f198516915b828110156104b75787850151825560209485019460019092019101610497565b50848210156104d55786840151600019600387901b60f8161c191681555b50505050600190811b01905550565b600082516104f6818460208701610268565b9190910192915050565b60006020828403121561051257600080fd5b5051919050565b60805160a05161349061056f6000396000610dc10152600081816104a201528181610a9701528181610b750152818161197c015281816123c60152818161257d015281816127ce01526128e001526134906000f3fe6080604052600436106103395760003560e01c806394bf804d116101ab578063c6e6f592116100f7578063d905777e11610095578063ef8b30f71161006f578063ef8b30f7146108b9578063efb7c45f14610a32578063f2fde38b14610a52578063f7aaaf3f14610a7257600080fd5b8063d905777e1461099c578063daf9c210146109bc578063dd62ed3e146109ec57600080fd5b8063ce96cb77116100d1578063ce96cb7714610919578063cfbd610314610939578063cfec829314610966578063d2a037ab1461098657600080fd5b8063c6e6f592146108b9578063cbb9649e146108d9578063cc4d40ff146108f957600080fd5b8063b3d7f6b911610164578063b6f9ab4b1161013e578063b6f9ab4b14610849578063ba08765214610869578063c38f7af414610889578063c63d75b61461053857600080fd5b8063b3d7f6b9146107d0578063b460af94146107f0578063b5af090f1461081057600080fd5b806394bf804d1461072457806395d89b411461074457806397fee4cd14610759578063a9059cbb14610779578063b177378e14610799578063b1c79f27146107b957600080fd5b8063402d267d11610285578063644190b21161022357806370a08231116101fd57806370a0823114610682578063715018a6146106b85780637ce5e47f146106cd5780638da5cb5b1461070657600080fd5b8063644190b2146106095780636e553f65146106425780636ff1c9bc1461066257600080fd5b8063530e784f1161025f578063530e784f146105875780635750c33c146105a95780635fa7b584146105c95780636247f6f2146105e957600080fd5b8063402d267d146105385780634161a60d1461055a5780634cdad5061461038f57600080fd5b806323b872dd116102f257806338d52e0f116102cc57806338d52e0f146104935780633a590c06146104c65780633aecd0e3146104e85780633ba8396e1461050857600080fd5b806323b872dd146104145780632630c12f14610434578063313ce5671461046c57600080fd5b806301e1d1141461034557806306fdde031461036d57806307a2d13a1461038f578063095ea7b3146103af5780630a28a477146103df57806318160ddd146103ff57600080fd5b3661034057005b600080fd5b34801561035157600080fd5b5061035a610a92565b6040519081526020015b60405180910390f35b34801561037957600080fd5b50610382610cc9565b6040516103649190612f12565b34801561039b57600080fd5b5061035a6103aa366004612f45565b610d5b565b3480156103bb57600080fd5b506103cf6103ca366004612f7a565b610d6e565b6040519015158152602001610364565b3480156103eb57600080fd5b5061035a6103fa366004612f45565b610d86565b34801561040b57600080fd5b5060025461035a565b34801561042057600080fd5b506103cf61042f366004612fa4565b610d93565b34801561044057600080fd5b50600a54610454906001600160a01b031681565b6040516001600160a01b039091168152602001610364565b34801561047857600080fd5b50610481610db9565b60405160ff9091168152602001610364565b34801561049f57600080fd5b507f0000000000000000000000000000000000000000000000000000000000000000610454565b3480156104d257600080fd5b506104db610dea565b6040516103649190612fe1565b3480156104f457600080fd5b5061035a61050336600461302d565b610e4b565b34801561051457600080fd5b506103cf61052336600461302d565b60066020526000908152604090205460ff1681565b34801561054457600080fd5b5061035a61055336600461302d565b5060001990565b34801561056657600080fd5b5061035a61057536600461302d565b600c6020526000908152604090205481565b34801561059357600080fd5b506105a76105a236600461302d565b610eb6565b005b3480156105b557600080fd5b506105a76105c436600461302d565b610f67565b3480156105d557600080fd5b506105a76105e436600461302d565b61101e565b3480156105f557600080fd5b506105a761060436600461302d565b611293565b34801561061557600080fd5b506103cf61062436600461302d565b6001600160a01b031660009081526006602052604090205460ff1690565b34801561064e57600080fd5b5061035a61065d366004613048565b6113e1565b34801561066e57600080fd5b506105a761067d36600461302d565b611407565b34801561068e57600080fd5b5061035a61069d36600461302d565b6001600160a01b031660009081526020819052604090205490565b3480156106c457600080fd5b506105a7611665565b3480156106d957600080fd5b506103cf6106e836600461302d565b6001600160a01b031660009081526007602052604090205460ff1690565b34801561071257600080fd5b506005546001600160a01b0316610454565b34801561073057600080fd5b5061035a61073f366004613048565b611679565b34801561075057600080fd5b50610382611697565b34801561076557600080fd5b506105a761077436600461302d565b6116a6565b34801561078557600080fd5b506103cf610794366004612f7a565b611768565b3480156107a557600080fd5b5061035a6107b436600461302d565b611776565b3480156107c557600080fd5b5061035a6298968081565b3480156107dc57600080fd5b5061035a6107eb366004612f45565b6117e5565b3480156107fc57600080fd5b5061035a61080b366004613074565b6117f2565b34801561081c57600080fd5b506103cf61082b36600461302d565b6001600160a01b031660009081526008602052604090205460ff1690565b34801561085557600080fd5b50610454610864366004612f45565b61184a565b34801561087557600080fd5b5061035a610884366004613074565b611874565b34801561089557600080fd5b506103cf6108a436600461302d565b60076020526000908152604090205460ff1681565b3480156108c557600080fd5b5061035a6108d4366004612f45565b6118c3565b3480156108e557600080fd5b506105a76108f4366004612f45565b6118d0565b34801561090557600080fd5b506105a761091436600461302d565b611a38565b34801561092557600080fd5b5061035a61093436600461302d565b611b42565b34801561094557600080fd5b5061035a61095436600461302d565b600b6020526000908152604090205481565b34801561097257600080fd5b5061035a6109813660046130b0565b611b66565b34801561099257600080fd5b5061035a600d5481565b3480156109a857600080fd5b5061035a6109b736600461302d565b61216f565b3480156109c857600080fd5b506103cf6109d736600461302d565b60086020526000908152604090205460ff1681565b3480156109f857600080fd5b5061035a610a0736600461316b565b6001600160a01b03918216600090815260016020908152604080832093909416825291909152205490565b348015610a3e57600080fd5b506105a7610a4d36600461302d565b61218d565b348015610a5e57600080fd5b506105a7610a6d36600461302d565b61229e565b348015610a7e57600080fd5b506105a7610a8d366004612f7a565b6122d9565b6000807f00000000000000000000000000000000000000000000000000000000000000006040516370a0823160e01b81523060048201526001600160a01b0391909116906370a0823190602401602060405180830381865afa158015610afc573d6000803e3d6000fd5b505050506040513d601f19601f82011682018060405250810190610b209190613195565b600a549091506001600160a01b0316610b3857919050565b60005b600954811015610cc357600060098281548110610b5a57610b5a6131ae565b6000918252602090912001546001600160a01b0390811691507f0000000000000000000000000000000000000000000000000000000000000000168103610ba15750610cbb565b6040516370a0823160e01b81523060048201526000906001600160a01b038316906370a0823190602401602060405180830381865afa158015610be8573d6000803e3d6000fd5b505050506040513d601f19601f82011682018060405250810190610c0c9190613195565b905080600003610c1d575050610cbb565b600a546040516341976e0960e01b81526001600160a01b038481166004830152909116906341976e0990602401602060405180830381865afa925050508015610c83575060408051601f3d908101601f19168201909252610c8091810190613195565b60015b610c8e575050610cbb565b670de0b6b3a7640000610ca182846131da565b610cab9190613207565b610cb5908661321b565b94505050505b600101610b3b565b50919050565b606060038054610cd89061322e565b80601f0160208091040260200160405190810160405280929190818152602001828054610d049061322e565b8015610d515780601f10610d2657610100808354040283529160200191610d51565b820191906000526020600020905b815481529060010190602001808311610d3457829003601f168201915b5050505050905090565b6000610d68826000612656565b92915050565b600033610d7c818585612690565b5060019392505050565b6000610d688260016126a2565b600033610da18582856126d2565b610dac85858561273d565b60019150505b9392505050565b6000610de5817f0000000000000000000000000000000000000000000000000000000000000000613262565b905090565b60606009805480602002602001604051908101604052809291908181526020018280548015610d5157602002820191906000526020600020905b81546001600160a01b03168152600190910190602001808311610e24575050505050905090565b6040516370a0823160e01b81523060048201526000906001600160a01b038316906370a0823190602401602060405180830381865afa158015610e92573d6000803e3d6000fd5b505050506040513d601f19601f82011682018060405250810190610d689190613195565b610ebe61279c565b6001600160a01b038116610f125760405162461bcd60e51b8152602060048201526016602482015275496e76616c6964206f7261636c65206164647265737360501b60448201526064015b60405180910390fd5b600a80546001600160a01b0319166001600160a01b0383169081179091556040514281527f8edc9a8fd8eef43010afe33227ca38f66ac3728efe25db637632ad088ecb6a76906020015b60405180910390a250565b610f6f61279c565b6001600160a01b03811660009081526006602052604090205460ff16610fcc5760405162461bcd60e51b8152602060048201526012602482015271109bdd081b9bdd08185d5d1a1bdc9a5e995960721b6044820152606401610f09565b6001600160a01b03811660008181526006602052604090819020805460ff19169055517fd3c80918197b4d99aaff9c6b839e8030b3068cb48c5f3e66c9994b81bd05b7d190610f5c9042815260200190565b61102661279c565b6001600160a01b03811660009081526008602052604090205460ff166110865760405162461bcd60e51b8152602060048201526015602482015274151bdad95b881b9bdd081dda1a5d195b1a5cdd1959605a1b6044820152606401610f09565b6040516370a0823160e01b81523060048201526001600160a01b038216906370a0823190602401602060405180830381865afa1580156110ca573d6000803e3d6000fd5b505050506040513d601f19601f820116820180604052508101906110ee9190613195565b1561113b5760405162461bcd60e51b815260206004820152601a60248201527f546f6b656e2062616c616e6365206d757374206265207a65726f0000000000006044820152606401610f09565b6001600160a01b0381166000908152600860205260408120805460ff191690555b60095481101561125757816001600160a01b031660098281548110611183576111836131ae565b6000918252602090912001546001600160a01b03160361124f57600980546111ad9060019061327b565b815481106111bd576111bd6131ae565b600091825260209091200154600980546001600160a01b0390921691839081106111e9576111e96131ae565b9060005260206000200160006101000a8154816001600160a01b0302191690836001600160a01b0316021790555060098054806112285761122861328e565b600082815260209020810160001990810180546001600160a01b0319169055019055611257565b60010161115c565b50806001600160a01b03167fbe9bb4bdca0a094babd75e3a98b1d2e2390633430d0a2f6e2b9970e2ee03fb2e42604051610f5c91815260200190565b61129b61279c565b6001600160a01b0381166112e15760405162461bcd60e51b815260206004820152600d60248201526c24b73b30b634b2103a37b5b2b760991b6044820152606401610f09565b6001600160a01b03811660009081526008602052604090205460ff161561134a5760405162461bcd60e51b815260206004820152601960248201527f546f6b656e20616c72656164792077686974656c6973746564000000000000006044820152606401610f09565b6001600160a01b038116600081815260086020526040808220805460ff191660019081179091556009805491820181559092527f6e1540171b6c0c960b71a7020d9f60077f6af931a8bbf590da0223dacf75c7af90910180546001600160a01b03191683179055517fe184914670d9e097e90729e2a9159866b30b1203952f0586bedca1d6fcf130a890610f5c9042815260200190565b600060001960006113f1856118c3565b90506113ff338587846127c9565b949350505050565b61140f61279c565b6001600160a01b0381166114fe5747806114605760405162461bcd60e51b81526020600482015260126024820152714e6f2045544820746f20776974686472617760701b6044820152606401610f09565b6005546040516001600160a01b039091169082156108fc029083906000818181858888f1935050505015801561149a573d6000803e3d6000fd5b5060006114af6005546001600160a01b031690565b6001600160a01b03167f1401b6ff3b281e84fd77353369caed48ba7e787dd3821db05cc006437360820183426040516114f2929190918252602082015260400190565b60405180910390a35050565b6040516370a0823160e01b81523060048201526000906001600160a01b038316906370a0823190602401602060405180830381865afa158015611545573d6000803e3d6000fd5b505050506040513d601f19601f820116820180604052508101906115699190613195565b9050600081116115b35760405162461bcd60e51b81526020600482015260156024820152744e6f20746f6b656e7320746f20776974686472617760581b6044820152606401610f09565b816001600160a01b031663a9059cbb6115d46005546001600160a01b031690565b6040516001600160e01b031960e084901b1681526001600160a01b039091166004820152602481018490526044016020604051808303816000875af1158015611621573d6000803e3d6000fd5b505050506040513d601f19601f8201168201806040525081019061164591906132c5565b50816001600160a01b03166114af6005546001600160a01b031690565b50565b61166d61279c565b611677600061285b565b565b60006000196000611689856117e5565b90506113ff338583886127c9565b606060048054610cd89061322e565b6116ae61279c565b6001600160a01b03811660009081526007602052604090205460ff166117165760405162461bcd60e51b815260206004820152601a60248201527f44455820726f75746572206e6f742077686974656c69737465640000000000006044820152606401610f09565b6001600160a01b03811660008181526007602052604090819020805460ff19169055517f28ff9489e13002215b54cafe518a3e4fcc4ee0d2b7323dd20624c30cdbb47f9b90610f5c9042815260200190565b600033610d7c81858561273d565b6001600160a01b0381166000908152600c602052604081205461179c906201518061321b565b42106117ac575062989680919050565b6001600160a01b0382166000908152600b60205260409020546298968081106117d85750600092915050565b610db2816298968061327b565b6000610d68826001612656565b6000806117fe83611b42565b90508085111561182757828582604051633fa733bb60e21b8152600401610f09939291906132a4565b600061183286610d86565b905061184133868689856128ad565b95945050505050565b6009818154811061185a57600080fd5b6000918252602090912001546001600160a01b0316905081565b6000806118808361216f565b9050808511156118a957828582604051632e52afbb60e21b8152600401610f09939291906132a4565b60006118b486610d5b565b9050611841338686848a6128ad565b6000610d688260006126a2565b6118d861279c565b600254156119285760405162461bcd60e51b815260206004820152601960248201527f5661756c7420616c726561647920696e697469616c697a6564000000000000006044820152606401610f09565b6103e881101561197a5760405162461bcd60e51b815260206004820152601960248201527f496e697469616c206465706f73697420746f6f20736d616c6c000000000000006044820152606401610f09565b7f00000000000000000000000000000000000000000000000000000000000000006040516323b872dd60e01b8152336004820152306024820152604481018390526001600160a01b0391909116906323b872dd906064016020604051808303816000875af11580156119f0573d6000803e3d6000fd5b505050506040513d601f19601f82011682018060405250810190611a1491906132c5565b50611a2361dead6103e861296d565b61166233611a336103e88461327b565b61296d565b611a4061279c565b6001600160a01b038116611a8b5760405162461bcd60e51b8152602060048201526012602482015271125b9d985b1a5908189bdd081dd85b1b195d60721b6044820152606401610f09565b6001600160a01b03811660009081526006602052604090205460ff1615611aed5760405162461bcd60e51b8152602060048201526016602482015275109bdd08185b1c9958591e48185d5d1a1bdc9a5e995960521b6044820152606401610f09565b6001600160a01b03811660008181526006602052604090819020805460ff19166001179055517f6847aaf8f4e196fcc713700b1c3bcc3a6f0e11fb5e74c812371aca9526eb5a8890610f5c9042815260200190565b6001600160a01b038116600090815260208190526040812054610d68906000612656565b3360009081526006602052604081205460ff16611bb65760405162461bcd60e51b815260206004820152600e60248201526d139bdd08185d5d1a1bdc9a5e995960921b6044820152606401610f09565b60008611611c065760405162461bcd60e51b815260206004820152601d60248201527f416d6f756e74206d7573742062652067726561746572207468616e20300000006044820152606401610f09565b6001600160a01b03881615801590611c2657506001600160a01b03871615155b611c625760405162461bcd60e51b815260206004820152600d60248201526c24b73b30b634b2103a37b5b2b760991b6044820152606401610f09565b6001600160a01b03841660009081526007602052604090205460ff16611cca5760405162461bcd60e51b815260206004820152601a60248201527f44455820726f75746572206e6f742077686974656c69737465640000000000006044820152606401610f09565b6001600160a01b03881660009081526008602052604090205460ff16611d325760405162461bcd60e51b815260206004820152601b60248201527f496e70757420746f6b656e206e6f742077686974656c697374656400000000006044820152606401610f09565b6001600160a01b03871660009081526008602052604090205460ff16611d9a5760405162461bcd60e51b815260206004820152601c60248201527f4f757470757420746f6b656e206e6f742077686974656c6973746564000000006044820152606401610f09565b6040516370a0823160e01b815230600482015286906001600160a01b038a16906370a0823190602401602060405180830381865afa158015611de0573d6000803e3d6000fd5b505050506040513d601f19601f82011682018060405250810190611e049190613195565b1015611e495760405162461bcd60e51b8152602060048201526014602482015273496e73756666696369656e742062616c616e636560601b6044820152606401610f09565b6040516370a0823160e01b81523060048201526000906001600160a01b038916906370a0823190602401602060405180830381865afa158015611e90573d6000803e3d6000fd5b505050506040513d601f19601f82011682018060405250810190611eb49190613195565b60405163095ea7b360e01b81526001600160a01b038781166004830152602482018a9052919250908a169063095ea7b3906044016020604051808303816000875af1158015611f07573d6000803e3d6000fd5b505050506040513d601f19601f82011682018060405250810190611f2b91906132c5565b506000856001600160a01b03168585604051611f489291906132e7565b6000604051808303816000865af19150503d8060008114611f85576040519150601f19603f3d011682016040523d82523d6000602084013e611f8a565b606091505b5050905080611fc95760405162461bcd60e51b815260206004820152600b60248201526a14ddd85c0819985a5b195960aa1b6044820152606401610f09565b60405163095ea7b360e01b81526001600160a01b038781166004830152600060248301528b169063095ea7b3906044016020604051808303816000875af1158015612018573d6000803e3d6000fd5b505050506040513d601f19601f8201168201806040525081019061203c91906132c5565b506040516370a0823160e01b81523060048201526000906001600160a01b038b16906370a0823190602401602060405180830381865afa158015612084573d6000803e3d6000fd5b505050506040513d601f19601f820116820180604052508101906120a89190613195565b90506120b4838261327b565b9350878410156120fa5760405162461bcd60e51b81526020600482015260116024820152700a6d8d2e0e0c2ceca40e8dede40d0d2ced607b1b6044820152606401610f09565b600d805490600061210a836132f7565b9091555050604080518a815260208101869052428183015290516001600160a01b038c811692908e169133917f6d2a49dc58cbd626bd59e1de8c53b7f89e2d4593ffa0c77aaadb93d227fb077a919081900360600190a4505050979650505050505050565b6001600160a01b038116600090815260208190526040812054610d68565b61219561279c565b6001600160a01b0381166121e05760405162461bcd60e51b815260206004820152601260248201527124b73b30b634b2102222ac103937baba32b960711b6044820152606401610f09565b6001600160a01b03811660009081526007602052604090205460ff16156122495760405162461bcd60e51b815260206004820152601e60248201527f44455820726f7574657220616c72656164792077686974656c697374656400006044820152606401610f09565b6001600160a01b03811660008181526007602052604090819020805460ff19166001179055517ffdb6f9a786a5dd109c48c7023e1a4740ff3b18e94cd7034ca328e02a5731886090610f5c9042815260200190565b6122a661279c565b6001600160a01b0381166122d057604051631e4fbdf760e01b815260006004820152602401610f09565b6116628161285b565b3360009081526006602052604090205460ff166123295760405162461bcd60e51b815260206004820152600e60248201526d139bdd08185d5d1a1bdc9a5e995960921b6044820152606401610f09565b6001600160a01b0382166123735760405162461bcd60e51b8152602060048201526011602482015270125b9d985b1a59081c9958da5c1a595b9d607a1b6044820152606401610f09565b600081116123c35760405162461bcd60e51b815260206004820152601d60248201527f416d6f756e74206d7573742062652067726561746572207468616e20300000006044820152606401610f09565b807f00000000000000000000000000000000000000000000000000000000000000006040516370a0823160e01b81523060048201526001600160a01b0391909116906370a0823190602401602060405180830381865afa15801561242b573d6000803e3d6000fd5b505050506040513d601f19601f8201168201806040525081019061244f9190613195565b101561249d5760405162461bcd60e51b815260206004820152601a60248201527f496e73756666696369656e74207661756c742062616c616e63650000000000006044820152606401610f09565b336000908152600c60205260409020546124ba906201518061321b565b42106124e057336000908152600b60209081526040808320839055600c90915290204290555b336000908152600b6020526040902054629896809061250090839061321b565b11156125585760405162461bcd60e51b815260206004820152602160248201527f4461696c79206d6963726f7061796d656e74206c696d697420657863656564656044820152601960fa1b6064820152608401610f09565b336000908152600b60205260408120805483929061257790849061321b565b909155507f0000000000000000000000000000000000000000000000000000000000000000905060405163a9059cbb60e01b81526001600160a01b03848116600483015260248201849052919091169063a9059cbb906044016020604051808303816000875af11580156125ef573d6000803e3d6000fd5b505050506040513d601f19601f8201168201806040525081019061261391906132c5565b50604080518281524260208201526001600160a01b0384169133917f5e8b001caf460cfa1a6859ba755860dd63f77e526f8834e9b2d638845f35005391016114f2565b6000610db2612663610a92565b61266e90600161321b565b61267a6000600a6133f7565b600254612687919061321b565b859190856129a7565b61269d83838360016129f6565b505050565b6000610db26126b282600a6133f7565b6002546126bf919061321b565b6126c7610a92565b61268790600161321b565b6001600160a01b038381166000908152600160209081526040808320938616835292905220546000198114612737578181101561272857828183604051637dc7a0d960e11b8152600401610f09939291906132a4565b612737848484840360006129f6565b50505050565b6001600160a01b03831661276757604051634b637e8f60e11b815260006004820152602401610f09565b6001600160a01b0382166127915760405163ec442f0560e01b815260006004820152602401610f09565b61269d838383612abd565b6005546001600160a01b031633146116775760405163118cdaa760e01b8152336004820152602401610f09565b6127f57f0000000000000000000000000000000000000000000000000000000000000000853085612bd4565b6127ff838261296d565b826001600160a01b0316846001600160a01b03167fdcbc1c05240f31ff3ad067ef1ee35ce4997762752e3a095284754544f4c709d7848460405161284d929190918252602082015260400190565b60405180910390a350505050565b600580546001600160a01b038381166001600160a01b0319831681179093556040519116919082907f8be0079c531659141344cd1fd0a4f28419497f9722a3daafe3b4186f6b6457e090600090a35050565b826001600160a01b0316856001600160a01b0316146128d1576128d18386836126d2565b6128db8382612c3b565b6129067f00000000000000000000000000000000000000000000000000000000000000008584612c71565b826001600160a01b0316846001600160a01b0316866001600160a01b03167ffbde797d201c681b91056529119e0b02407c7bb96a4a2c75c01fc9667232c8db858560405161295e929190918252602082015260400190565b60405180910390a45050505050565b6001600160a01b0382166129975760405163ec442f0560e01b815260006004820152602401610f09565b6129a360008383612abd565b5050565b6000806129b5868686612ca2565b90506129c083612d66565b80156129dc5750600084806129d7576129d76131f1565b868809115b15611841576129ec60018261321b565b9695505050505050565b6001600160a01b038416612a205760405163e602df0560e01b815260006004820152602401610f09565b6001600160a01b038316612a4a57604051634a1406b160e11b815260006004820152602401610f09565b6001600160a01b038085166000908152600160209081526040808320938716835292905220829055801561273757826001600160a01b0316846001600160a01b03167f8c5be1e5ebec7d5bd14f71427d1e84f3dd0314c0f7b2291e5b200ac8c7c3b9258460405161284d91815260200190565b6001600160a01b038316612ae8578060026000828254612add919061321b565b90915550612b479050565b6001600160a01b03831660009081526020819052604090205481811015612b285783818360405163391434e360e21b8152600401610f09939291906132a4565b6001600160a01b03841660009081526020819052604090209082900390555b6001600160a01b038216612b6357600280548290039055612b82565b6001600160a01b03821660009081526020819052604090208054820190555b816001600160a01b0316836001600160a01b03167fddf252ad1be2c89b69c2b068fc378daa952ba7f163c4a11628f55a4df523b3ef83604051612bc791815260200190565b60405180910390a3505050565b6040516001600160a01b0384811660248301528381166044830152606482018390526127379186918216906323b872dd906084015b604051602081830303815290604052915060e01b6020820180516001600160e01b038381831617835250505050612d93565b6001600160a01b038216612c6557604051634b637e8f60e11b815260006004820152602401610f09565b6129a382600083612abd565b6040516001600160a01b0383811660248301526044820183905261269d91859182169063a9059cbb90606401612c09565b6000838302816000198587098281108382030391505080600003612cd957838281612ccf57612ccf6131f1565b0492505050610db2565b808411612cf95760405163227bc15360e01b815260040160405180910390fd5b6000848688096000868103871696879004966002600389028118808a02820302808a02820302808a02820302808a02820302808a02820302808a02909103029181900381900460010186841190950394909402919094039290920491909117919091029150509392505050565b60006002826003811115612d7c57612d7c613406565b612d86919061341c565b60ff166001149050919050565b6000612da86001600160a01b03841683612df6565b90508051600014158015612dcd575080806020019051810190612dcb91906132c5565b155b1561269d57604051635274afe760e01b81526001600160a01b0384166004820152602401610f09565b6060610db28383600084600080856001600160a01b03168486604051612e1c919061343e565b60006040518083038185875af1925050503d8060008114612e59576040519150601f19603f3d011682016040523d82523d6000602084013e612e5e565b606091505b50915091506129ec868383606082612e7e57612e7982612ec5565b610db2565b8151158015612e9557506001600160a01b0384163b155b15612ebe57604051639996b31560e01b81526001600160a01b0385166004820152602401610f09565b5080610db2565b805115612ed55780518082602001fd5b604051630a12f52160e11b815260040160405180910390fd5b60005b83811015612f09578181015183820152602001612ef1565b50506000910152565b6020815260008251806020840152612f31816040850160208701612eee565b601f01601f19169190910160400192915050565b600060208284031215612f5757600080fd5b5035919050565b80356001600160a01b0381168114612f7557600080fd5b919050565b60008060408385031215612f8d57600080fd5b612f9683612f5e565b946020939093013593505050565b600080600060608486031215612fb957600080fd5b612fc284612f5e565b9250612fd060208501612f5e565b929592945050506040919091013590565b602080825282518282018190526000918401906040840190835b818110156130225783516001600160a01b0316835260209384019390920191600101612ffb565b509095945050505050565b60006020828403121561303f57600080fd5b610db282612f5e565b6000806040838503121561305b57600080fd5b8235915061306b60208401612f5e565b90509250929050565b60008060006060848603121561308957600080fd5b8335925061309960208501612f5e565b91506130a760408501612f5e565b90509250925092565b600080600080600080600060c0888a0312156130cb57600080fd5b6130d488612f5e565b96506130e260208901612f5e565b955060408801359450606088013593506130fe60808901612f5e565b925060a088013567ffffffffffffffff81111561311a57600080fd5b8801601f81018a1361312b57600080fd5b803567ffffffffffffffff81111561314257600080fd5b8a602082840101111561315457600080fd5b602082019350809250505092959891949750929550565b6000806040838503121561317e57600080fd5b61318783612f5e565b915061306b60208401612f5e565b6000602082840312156131a757600080fd5b5051919050565b634e487b7160e01b600052603260045260246000fd5b634e487b7160e01b600052601160045260246000fd5b8082028115828204841417610d6857610d686131c4565b634e487b7160e01b600052601260045260246000fd5b600082613216576132166131f1565b500490565b80820180821115610d6857610d686131c4565b600181811c9082168061324257607f821691505b602082108103610cc357634e487b7160e01b600052602260045260246000fd5b60ff8181168382160190811115610d6857610d686131c4565b81810381811115610d6857610d686131c4565b634e487b7160e01b600052603160045260246000fd5b6001600160a01b039390931683526020830191909152604082015260600190565b6000602082840312156132d757600080fd5b81518015158114610db257600080fd5b8183823760009101908152919050565b600060018201613309576133096131c4565b5060010190565b6001815b600184111561334b5780850481111561332f5761332f6131c4565b600184161561333d57908102905b60019390931c928002613314565b935093915050565b60008261336257506001610d68565b8161336f57506000610d68565b8160018114613385576002811461338f576133ab565b6001915050610d68565b60ff8411156133a0576133a06131c4565b50506001821b610d68565b5060208310610133831016604e8410600b84101617156133ce575081810a610d68565b6133db6000198484613310565b80600019048211156133ef576133ef6131c4565b029392505050565b6000610db260ff841683613353565b634e487b7160e01b600052602160045260246000fd5b600060ff83168061342f5761342f6131f1565b8060ff84160691505092915050565b60008251613450818460208701612eee565b919091019291505056fea26469706673582212202f3ecf9d011cc493b7f2dc6fbba6cf8185b9e21105f1ebf80c6ce49d40a6419b64736f6c634300081e0033",
  "devdoc": {
    "details": "Holds USDC on Base network, allows authorized bots to execute trades  SECURITY FEATURES: - Multi-asset accounting with price oracle integration - DEX router whitelist (prevents malicious contract approvals) - Daily micropayment limits per bot (10 USDC/day) - Inflation attack protection via initial share offset - Atomic swap execution (approve + swap in one transaction)",
    "errors": {
      "AddressEmptyCode(address)": [
        {
          "details": "There's no code at `target` (it is not a contract)."
        }
      ],
      "AddressInsufficientBalance(address)": [
        {
          "details": "The ETH balance of the account is not enough to perform the operation."
        }
      ],
      "ERC20InsufficientAllowance(address,uint256,uint256)": [
        {
          "details": "Indicates a failure with the `spender`s `allowance`. Used in transfers.",
          "params": {
            "allowance": "Amount of tokens a `spender` is allowed to operate with.",
            "needed": "Minimum amount required to perform a transfer.",
            "spender": "Address that may be allowed to operate on tokens without being their owner."
          }
        }
      ],
      "ERC20InsufficientBalance(address,uint256,uint256)": [
        {
          "details": "Indicates an error related to the current `balance` of a `sender`. Used in transfers.",
          "params": {
            "balance": "Current balance for the interacting account.",
            "needed": "Minimum amount required to perform a transfer.",
            "sender": "Address whose tokens are being transferred."
          }
        }
      ],
      "ERC20InvalidApprover(address)": [
        {
          "details": "Indicates a failure with the `approver` of a token to be approved. Used in approvals.",
          "params": {
            "approver": "Address initiating an approval operation."
          }
        }
      ],
      "ERC20InvalidReceiver(address)": [
        {
          "details": "Indicates a failure with the token `receiver`. Used in transfers.",
          "params": {
            "receiver": "Address to which tokens are being transferred."
          }
        }
      ],
      "ERC20InvalidSender(address)": [
        {
          "details": "Indicates a failure with the token `sender`. Used in transfers.",
          "params": {
            "sender": "Address whose tokens are being transferred."
          }
        }
      ],
      "ERC20InvalidSpender(address)": [
        {
          "details": "Indicates a failure with the `spender` to be approved. Used in approvals.",
          "params": {
            "spender": "Address that may be allowed to operate on tokens without being their owner."
          }
        }
      ],
      "ERC4626ExceededMaxDeposit(address,uint256,uint256)": [
        {
          "details": "Attempted to deposit more assets than the max amount for `receiver`."
        }
      ],
      "ERC4626ExceededMaxMint(address,uint256,uint256)": [
        {
          "details": "Attempted to mint more shares than the max amount for `receiver`."
        }
      ],
      "ERC4626ExceededMaxRedeem(address,uint256,uint256)": [
        {
          "details": "Attempted to redeem more shares than the max amount for `receiver`."
        }
      ],
      "ERC4626ExceededMaxWithdraw(address,uint256,uint256)": [
        {
          "details": "Attempted to withdraw more assets than the max amount for `receiver`."
        }
      ],
      "FailedInnerCall()": [
        {
          "details": "A call to an address target failed. The target may have reverted."
        }
      ],
      "MathOverflowedMulDiv()": [
        {
          "details": "Muldiv operation overflow."
        }
      ],
      "OwnableInvalidOwner(address)": [
        {
          "details": "The owner is not a valid owner account. (eg. `address(0)`)"
        }
      ],
      "OwnableUnauthorizedAccount(address)": [
        {
          "details": "The caller account is not authorized to perform an operation."
        }
      ],
      "SafeERC20FailedOperation(address)": [
        {
          "details": "An operation with an ERC20 token failed."
        }
      ]
    },
    "events": {
      "Approval(address,address,uint256)": {
        "details": "Emitted when the allowance of a `spender` for an `owner` is set by a call to {approve}. `value` is the new allowance."
      },
      "Transfer(address,address,uint256)": {
        "details": "Emitted when `value` tokens are moved from one account (`from`) to another (`to`). Note that `value` may be zero."
      }
    },
    "kind": "dev",
    "methods": {
      "allowance(address,address)": {
        "details": "See {IERC20-allowance}."
      },
      "approve(address,uint256)": {
        "details": "See {IERC20-approve}. NOTE: If `value` is the maximum `uint256`, the allowance is not updated on `transferFrom`. This is semantically equivalent to an infinite approval. Requirements: - `spender` cannot be the zero address."
      },
      "asset()": {
        "details": "See {IERC4626-asset}. "
      },
      "authorizeBotWallet(address)": {
        "params": {
          "botWallet": "Address of the bot's CDP wallet"
        }
      },
      "balanceOf(address)": {
        "details": "See {IERC20-balanceOf}."
      },
      "constructor": {
        "details": "Mints initial shares to dead address to prevent first depositor attack",
        "params": {
          "_asset": "USDC token address on Base",
          "_name": "Vault token name",
          "_symbol": "Vault token symbol"
        }
      },
      "convertToAssets(uint256)": {
        "details": "See {IERC4626-convertToAssets}. "
      },
      "convertToShares(uint256)": {
        "details": "See {IERC4626-convertToShares}. "
      },
      "deauthorizeBotWallet(address)": {
        "params": {
          "botWallet": "Address of the bot's CDP wallet"
        }
      },
      "decimals()": {
        "details": "Decimals are computed by adding the decimal offset on top of the underlying asset's decimals. This \"original\" value is cached during construction of the vault contract. If this read operation fails (e.g., the asset has not been created yet), a default of 18 is used to represent the underlying asset's decimals. See {IERC20Metadata-decimals}."
      },
      "deposit(uint256,address)": {
        "details": "See {IERC4626-deposit}. "
      },
      "emergencyWithdraw(address)": {
        "params": {
          "token": "Address of token to withdraw (address(0) for ETH)"
        }
      },
      "executeTrade(address,address,uint256,uint256,address,bytes)": {
        "details": "Performs approve + swap in single transaction to prevent dangling approvals",
        "params": {
          "amountIn": "Amount of input token to spend",
          "dexRouter": "Address of DEX router to execute trade",
          "minAmountOut": "Minimum output tokens to receive (slippage protection)",
          "swapCalldata": "Encoded swap function call for the DEX router",
          "tokenIn": "Address of input token (usually USDC)",
          "tokenOut": "Address of output token"
        },
        "returns": {
          "amountOut": "Actual amount of output tokens received"
        }
      },
      "getHeldTokens()": {
        "returns": {
          "_0": "Array of token addresses"
        }
      },
      "getRemainingMicropaymentAllowance(address)": {
        "params": {
          "bot": "Address of the bot"
        },
        "returns": {
          "_0": "Remaining USDC amount the bot can transfer today"
        }
      },
      "getTokenBalance(address)": {
        "params": {
          "token": "Address of token to check"
        },
        "returns": {
          "_0": "Token balance"
        }
      },
      "initializeVault(uint256)": {
        "details": "Owner must call this after deployment with initial USDC",
        "params": {
          "initialDeposit": "Amount of USDC to seed (recommended: 1000 USDC minimum)"
        }
      },
      "isBotAuthorized(address)": {
        "params": {
          "botWallet": "Address to check"
        },
        "returns": {
          "_0": "True if authorized"
        }
      },
      "isDexRouterWhitelisted(address)": {
        "params": {
          "dexRouter": "Address to check"
        },
        "returns": {
          "_0": "True if whitelisted"
        }
      },
      "isTokenWhitelisted(address)": {
        "params": {
          "token": "Address to check"
        },
        "returns": {
          "_0": "True if whitelisted"
        }
      },
      "maxDeposit(address)": {
        "details": "See {IERC4626-maxDeposit}. "
      },
      "maxMint(address)": {
        "details": "See {IERC4626-maxMint}. "
      },
      "maxRedeem(address)": {
        "details": "See {IERC4626-maxRedeem}. "
      },
      "maxWithdraw(address)": {
        "details": "See {IERC4626-maxWithdraw}. "
      },
      "mint(uint256,address)": {
        "details": "See {IERC4626-mint}. As opposed to {deposit}, minting is allowed even if the vault is in a state where the price of a share is zero. In this case, the shares will be minted without requiring any assets to be deposited."
      },
      "name()": {
        "details": "Returns the name of the token."
      },
      "owner()": {
        "details": "Returns the address of the current owner."
      },
      "previewDeposit(uint256)": {
        "details": "See {IERC4626-previewDeposit}. "
      },
      "previewMint(uint256)": {
        "details": "See {IERC4626-previewMint}. "
      },
      "previewRedeem(uint256)": {
        "details": "See {IERC4626-previewRedeem}. "
      },
      "previewWithdraw(uint256)": {
        "details": "See {IERC4626-previewWithdraw}. "
      },
      "redeem(uint256,address,address)": {
        "details": "See {IERC4626-redeem}. "
      },
      "removeDexRouter(address)": {
        "params": {
          "dexRouter": "Address of the DEX router to remove"
        }
      },
      "removeToken(address)": {
        "params": {
          "token": "Address of the token to remove"
        }
      },
      "renounceOwnership()": {
        "details": "Leaves the contract without owner. It will not be possible to call `onlyOwner` functions. Can only be called by the current owner. NOTE: Renouncing ownership will leave the contract without an owner, thereby disabling any functionality that is only available to the owner."
      },
      "setPriceOracle(address)": {
        "params": {
          "oracle": "Address of price oracle contract"
        }
      },
      "symbol()": {
        "details": "Returns the symbol of the token, usually a shorter version of the name."
      },
      "totalAssets()": {
        "details": "Sums USDC balance + value of all other tokens via price oracle",
        "returns": {
          "_0": "Total value in USDC (6 decimals)"
        }
      },
      "totalSupply()": {
        "details": "See {IERC20-totalSupply}."
      },
      "transfer(address,uint256)": {
        "details": "See {IERC20-transfer}. Requirements: - `to` cannot be the zero address. - the caller must have a balance of at least `value`."
      },
      "transferFrom(address,address,uint256)": {
        "details": "See {IERC20-transferFrom}. Emits an {Approval} event indicating the updated allowance. This is not required by the EIP. See the note at the beginning of {ERC20}. NOTE: Does not update the allowance if the current allowance is the maximum `uint256`. Requirements: - `from` and `to` cannot be the zero address. - `from` must have a balance of at least `value`. - the caller must have allowance for ``from``'s tokens of at least `value`."
      },
      "transferOwnership(address)": {
        "details": "Transfers ownership of the contract to a new account (`newOwner`). Can only be called by the current owner."
      },
      "transferUSDC(address,uint256)": {
        "details": "Used for x402 micropayments between bots with daily limit",
        "params": {
          "amount": "Amount of USDC to transfer",
          "recipient": "Address to receive USDC"
        }
      },
      "whitelistDexRouter(address)": {
        "params": {
          "dexRouter": "Address of the DEX router to whitelist"
        }
      },
      "whitelistToken(address)": {
        "params": {
          "token": "Address of the token to whitelist"
        }
      },
      "withdraw(uint256,address,address)": {
        "details": "See {IERC4626-withdraw}. "
      }
    },
    "title": "S4D5Vault",
    "version": 1
  },
  "userdoc": {
    "kind": "user",
    "methods": {
      "authorizeBotWallet(address)": {
        "notice": "Authorize a bot to execute trades"
      },
      "constructor": {
        "notice": "Constructor with inflation attack protection"
      },
      "deauthorizeBotWallet(address)": {
        "notice": "Deauthorize a bot from executing trades"
      },
      "emergencyWithdraw(address)": {
        "notice": "Emergency withdraw specific token (owner only)"
      },
      "executeTrade(address,address,uint256,uint256,address,bytes)": {
        "notice": "Execute a trade with atomic swap (authorized bots only)"
      },
      "getHeldTokens()": {
        "notice": "Get list of all tokens held by vault"
      },
      "getRemainingMicropaymentAllowance(address)": {
        "notice": "Get remaining micropayment allowance for a bot today"
      },
      "getTokenBalance(address)": {
        "notice": "Get balance of specific token in vault"
      },
      "initializeVault(uint256)": {
        "notice": "Initialize vault with seed deposit to prevent inflation attack"
      },
      "isBotAuthorized(address)": {
        "notice": "Check if a bot is authorized"
      },
      "isDexRouterWhitelisted(address)": {
        "notice": "Check if a DEX router is whitelisted"
      },
      "isTokenWhitelisted(address)": {
        "notice": "Check if a token is whitelisted"
      },
      "removeDexRouter(address)": {
        "notice": "Remove a DEX router from whitelist"
      },
      "removeToken(address)": {
        "notice": "Remove a token from whitelist"
      },
      "setPriceOracle(address)": {
        "notice": "Set price oracle for multi-asset valuation"
      },
      "totalAssets()": {
        "notice": "Get total assets under management in USDC terms"
      },
      "transferUSDC(address,uint256)": {
        "notice": "Transfer USDC to a specific address (authorized bots only)"
      },
      "whitelistDexRouter(address)": {
        "notice": "Whitelist a DEX router for trading"
      },
      "whitelistToken(address)": {
        "notice": "Whitelist a token that the vault can hold"
      }
    },
    "notice": "ERC-4626 compliant vault for S4D5 AI Hedge Fund with multi-asset accounting",
    "version": 1
  },
  "storageLayout": {
    "storage": [
      {
        "astId": 477,
        "contract": "contracts/S4D5Vault.sol:S4D5Vault",
        "label": "_balances",
        "offset": 0,
        "slot": "0",
        "type": "t_mapping(t_address,t_uint256)"
      },
      {
        "astId": 483,
        "contract": "contracts/S4D5Vault.sol:S4D5Vault",
        "label": "_allowances",
        "offset": 0,
        "slot": "1",
        "type": "t_mapping(t_address,t_mapping(t_address,t_uint256))"
      },
      {
        "astId": 485,
        "contract": "contracts/S4D5Vault.sol:S4D5Vault",
        "label": "_totalSupply",
        "offset": 0,
        "slot": "2",
        "type": "t_uint256"
      },
      {
        "astId": 487,
        "contract": "contracts/S4D5Vault.sol:S4D5Vault",
        "label": "_name",
        "offset": 0,
        "slot": "3",
        "type": "t_string_storage"
      },
      {
        "astId": 489,
        "contract": "contracts/S4D5Vault.sol:S4D5Vault",
        "label": "_symbol",
        "offset": 0,
        "slot": "4",
        "type": "t_string_storage"
      },
      {
        "astId": 8,
        "contract": "contracts/S4D5Vault.sol:S4D5Vault",
        "label": "_owner",
        "offset": 0,
        "slot": "5",
        "type": "t_address"
      },
      {
        "astId": 3511,
        "contract": "contracts/S4D5Vault.sol:S4D5Vault",
        "label": "authorizedBots",
        "offset": 0,
        "slot": "6",
        "type": "t_mapping(t_address,t_bool)"
      },
      {
        "astId": 3515,
        "contract": "contracts/S4D5Vault.sol:S4D5Vault",
        "label": "whitelistedDexRouters",
        "offset": 0,
        "slot": "7",
        "type": "t_mapping(t_address,t_bool)"
      },
      {
        "astId": 3519,
        "contract": "contracts/S4D5Vault.sol:S4D5Vault",
        "label": "whitelistedTokens",
        "offset": 0,
        "slot": "8",
        "type": "t_mapping(t_address,t_bool)"
      },
      {
        "astId": 3522,
        "contract": "contracts/S4D5Vault.sol:S4D5Vault",
        "label": "heldTokens",
        "offset": 0,
        "slot": "9",
        "type": "t_array(t_address)dyn_storage"
      },
      {
        "astId": 3524,
        "contract": "contracts/S4D5Vault.sol:S4D5Vault",
        "label": "priceOracle",
        "offset": 0,
        "slot": "10",
        "type": "t_address"
      },
      {
        "astId": 3533,
        "contract": "contracts/S4D5Vault.sol:S4D5Vault",
        "label": "dailyMicropaymentUsed",
        "offset": 0,
        "slot": "11",
        "type": "t_mapping(t_address,t_uint256)"
      },
      {
        "astId": 3537,
        "contract": "contracts/S4D5Vault.sol:S4D5Vault",
        "label": "lastMicropaymentReset",
        "offset": 0,
        "slot": "12",
        "type": "t_mapping(t_address,t_uint256)"
      },
      {
        "astId": 3539,
        "contract": "contracts/S4D5Vault.sol:S4D5Vault",
        "label": "totalTradesExecuted",
        "offset": 0,
        "slot": "13",
        "type": "t_uint256"
      }
    ],
    "types": {
      "t_address": {
        "encoding": "inplace",
        "label": "address",
        "numberOfBytes": "20"
      },
      "t_array(t_address)dyn_storage": {
        "base": "t_address",
        "encoding": "dynamic_array",
        "label": "address[]",
        "numberOfBytes": "32"
      },
      "t_bool": {
        "encoding": "inplace",
        "label": "bool",
        "numberOfBytes": "1"
      },
      "t_mapping(t_address,t_bool)": {
        "encoding": "mapping",
        "key": "t_address",
        "label": "mapping(address => bool)",
        "numberOfBytes": "32",
        "value": "t_bool"
      },
      "t_mapping(t_address,t_mapping(t_address,t_uint256))": {
        "encoding": "mapping",
        "key": "t_address",
        "label": "mapping(address => mapping(address => uint256))",
        "numberOfBytes": "32",
        "value": "t_mapping(t_address,t_uint256)"
      },
      "t_mapping(t_address,t_uint256)": {
        "encoding": "mapping",
        "key": "t_address",
        "label": "mapping(address => uint256)",
        "numberOfBytes": "32",
        "value": "t_uint256"
      },
      "t_string_storage": {
        "encoding": "bytes",
        "label": "string",
        "numberOfBytes": "32"
      },
      "t_uint256": {
        "encoding": "inplace",
        "label": "uint256",
        "numberOfBytes": "32"
      }
    }
  }
}